:100000000C9434000C943E000C943E000C943E0082
:100010000C943E000C943E000C943E000C943E0068
:100020000C943E000C943E000C943E000C943E0058
:100030000C943E000C943E000C943E000C943E0048
:100040000C943E000C943E000C943E000C943E0038
:100050000C943E000C943E000C943E000C943E0028
:100060000C943E000C943E0011241FBECFEFD8E04C
:10007000DEBFCDBF0E9451000C9477000C940000AD
:100080009FEFAFEFAA95F1F79A95D9F7089530EA67
:1000900040EA50EA5A95F1F74A95D9F73A95C1F7EF
:1000A0000895CFEFD8E0DEBFCDBF0E9468000E9468
:1000B00072000E9440000E9472000E9440000E9454
:1000C00072000E9440000E9472000E944700EFCF21
:1000D00011241FBE80E88093610010926100219A74
:1000E0002998089585B192E0892785B90895F894F3
:0200F000FFCF40
:00000001FF
