:100000000C9434000C943E000C943E000C943E0082
:100010000C943E000C943E000C943E000C943E0068
:100020000C943E000C943E000C943E000C943E0058
:100030000C943E000C943E000C943E000C943E0048
:100040000C943E000C943E000C943E000C943E0038
:100050000C943E000C943E000C943E000C943E0028
:100060000C943E000C943E0011241FBECFEFD8E04C
:10007000DEBFCDBF0E9444000C9466000C940000CB
:10008000AFEFAA95F1F70895CFEFD8E0DEBFCDBF6F
:100090000E9457000E9461000E9440000E9461007F
:1000A0000E9440000E9461000E944000F3CF112492
:1000B0001FBE80E88093610010926100219A299808
:1000C000089585B192E0892785B90895F894FFCF06
:00000001FF
